:1000000050200020310600002D0600002D060000C3
:1000100000000000000000000000000000000000E0
:100020000000000000000000000000002D0600009D
:1000300000000000000000002D0600002D0600005A
:100040002D0600002D0600002D0600002D060000E4
:100050002D0600002D0600002D0600002D060000D4
:100060002D0600002D0600002D06000049080000A6
:100070002D0600002D0600002D0600002D060000B4
:100080002D0600002D0600002D0600002D060000A4
:100090002D0600002D0600002D0600002D06000094
:1000A0002D0600002D0600002D0600002D06000084
:1000B0000000000010B5064C2378002B07D1054B3B
:1000C000002B02D0044800E000BF0123237010BDC4
:1000D0000800002000000000240A0000084B10B5B2
:1000E000002B03D00749084800E000BF0748036819
:1000F000002B00D110BD064B002BFBD09847F9E731
:10010000000000000C000020240A0000240A000067
:10011000000000000C4B1B68002B06D1EFF310838E
:10012000002B07D00022094B1A70074A13680133CD
:100130001360704772B6BFF35F8F0022044B1A70D2
:100140000132024B1A70F0E7240000202800002042
:1001500000000020084B1A68013A1A601B68002B47
:1001600009D1064B1B78002B05D00122044B1A70D5
:10017000BFF35F8F62B67047240000202800002084
:1001800000000020F0B583B001AC012565700027A8
:10019000A770257021003E20064EB0478022D20570
:1001A000054B9A612770657021000F20B04703B09E
:1001B000F0BDC046BD0100008044004100B583B0E1
:1001C00001AB80221A700A785A704A789A708A783D
:1001D000DA701900014B984703B000BDCD0500004F
:1001E00070B50C490B6A047885784078012210407C
:1001F00080014026B34303432A40D2018020834339
:1002000013430322224012020348034013430B62AC
:1002100070BDC04600080040FFFCFFFF082803D85F
:100220008000254B1B589F46172044E0234A136A41
:1002300002210B43136200203DE0204A9369022112
:100240000B439361002036E01C4A138A02210B43C2
:10025000138200202FE0194A938A02210B439382D4
:10026000002028E016490B68022213430B60134B51
:100270009A8419000E32CB681A42FCD0104A916859
:100280000E4BD96252689A6200229A841900103289
:10029000CB681A42FCD00A4B1B689BB2074A938476
:1002A000002008E0054944228B5C022003438B5464
:1002B000002000E000207047E00900000008004036
:1002C0002C00002030B585B0C222D2001A4B9A60B3
:1002D0001A4A53681E218B43536001236A461370E8
:1002E0000024174DE0B26946A8470134252CF9D106
:1002F00003A800244470012585700470114B9847B1
:100300000620114B9847114B9847114B1C725C7299
:100310009C72DC7201956B465C7006236A46137012
:1003200014725472694600200A4B984700200A4B09
:10033000984705B030BDC04600080040004000416D
:1003400009050000E10100001D0200005D0300003E
:10035000000400408103000039040000064A93694C
:1003600008210B4393610122044B1A7019000B788A
:100370001342FCD17047C04600040040000C00400E
:1003800070B5060004000D782D0205434B78002B54
:1003900002D08023DB021D434B7A002B02D0802346
:1003A0001B031D434868012810D9431E184234D14D
:1003B000022830D90223002201325B009842FBD888
:1003C00012023243140080235B031D430B7A002B7F
:1003D00002D080239B031D43134A53785BB2002B4A
:1003E000FBDB124B9847124B1E700F4A53785BB2DF
:1003F000002BFBDB0C4B9C601A0053785BB2002B8C
:10040000FBDB094A5368802149020B401D435560BC
:10041000084B984770BD0022D2E704023443802382
:100420009B021D43D2E7C046000C004015010000AE
:10043000080C00405501000010B504000B4A537829
:100440005BB2002BFBDB0A4B98470A4B1C70074A38
:1004500053785BB2002BFBDB044A516880235B02BC
:100460000B435360044B984710BDC046000C00403E
:1004700015010000040C00405501000010B50400F7
:10048000064B9847064B1C70064A53888021C901C9
:100490000B435380044B984710BDC0461501000024
:1004A000020C0040000C00405501000010B5040093
:1004B0000F4B98470F4B1C700F4A53881B05180FA2
:1004C00053880E490B40538053880D490B4053808D
:1004D00011008022D2014B881342FCD106494A8880
:1004E00003020648024013434B80064B984710BD59
:1004F00015010000020C0040000C0040FFF0FFFF5F
:10050000FFBFFFFF5501000010B50C782402044323
:10051000024B9847A4B2024B5C8010BDAD040000B2
:10052000000C004030B5D378002B35D11378802BE8
:1005300029D01B0680246402234354780225AC434F
:1005400006D19478002C20D18024A402234341605A
:100550005478013C012C1CD90D042D0CA024E40579
:100560002C431C4384620D0CD02424062C431C43D2
:100570008462D478002C22D15B031CD59378012BA4
:100580001ED0416117E00023D7E7C024E4022343D3
:10059000DDE70D4C2340DFE741600C04240CA02371
:1005A000DB05234383620C0CD0231B0623438362A9
:1005B000D378002B03D15378013B012B02D930BDF6
:1005C0008161F8E78160FAE7FFFFFBFF10B50A00E1
:1005D000C1090023002904D14309DB0105498C46E8
:1005E00063441F242040012181401800024B98479A
:1005F00010BDC046004400412505000070470000C2
:1006000010B5054B9847054B9847054B9847054B48
:100610009847054B984710BDC502000085010000B2
:10062000FD050000FD050000FD050000FEE70000DF
:10063000F8B52A4A2A4B9A4211D01A00294B9A42FD
:100640000DD2294A03339B1A9B0801339B000022D9
:10065000234822498C58845004329A42FAD1234AC2
:10066000234B9A420AD2D34321495B1803218B437F
:1006700004339B18002102C29342FCD11D4AFF2182
:100680001D4B8B439360FD3990235B001B4AD15077
:100690001B4AD3780325AB4302242343D370D3787A
:1006A0000C27BB4308263343D370164B987B30226C
:1006B0009043202210439873997BB9433143997337
:1006C0009A7BAA4322439A730F4A536880210B43B3
:1006D00053600E4B98470E4B9847FEE7240A0000E4
:1006E0000000002008000020040000200800002076
:1006F0005000002000ED00E000000000007000410C
:1007000000500041004800410040004199090000AC
:100710004D09000000B583B0074A136A10210B434E
:10072000136201A900230B701620044B9847162072
:10073000034B984703B000BD0004004009050000CA
:100740007D04000010B50E4B48215A5C0124224361
:100750005A543422985C393988439854985C0C393F
:10076000084398544920195C21431954995C3A383C
:1007700001409954995C21300143995410BDC04601
:1007800000440041164B174A1A60802252005A60FA
:100790001A00D3695B07FCD42F22114BDA601A00D0
:1007A000D3695B07FCD40E4A136802210B43136024
:1007B00011000222CB691A42FCD1094A538B302125
:1007C0008B4310210B435383D3695B07FCD4032273
:1007D000034B9A7580221201034B1A607047C04682
:1007E000001000429400200000E100E00022124BC3
:1007F0001A70124A536812490B405360D3695B0761
:10080000FCD424220D4B5A620E4A1378002BFCD0E4
:100810000A4A53680A490B405360D3695B07FCD40A
:100820002522064B5A62074A1378002BFCD003227C
:10083000024B1A757047C046480000200010004265
:10084000FFFFFBFF45000020394B1B7EDB070ED569
:10085000384B1B78032B34D0591C364A1170364A5A
:10086000D15C2823324AD154D3695B07FCD4304B86
:100870001B7E9B0724D52F4B1978022936D02C4A92
:1008800050688023DB0203435360D3695B07FCD4C9
:100890004A1C284B1A702823254AD25C274B5A54ED
:1008A000234AD3695B07FCD421494B68244A1A4088
:1008B00080239B0213434B600A00D3695B07FCD47F
:1008C00070471B4A5168C0239B020B435360D36996
:1008D0005B07FCD401221B4B1A700022154B1A70C7
:1008E000134B1B7E00219B07C9D4E9E7104A5168CE
:1008F0008023DB020B435360D3695B07FCD40C4AB3
:100900005168C0239B020B435360D3695B07FCD43F
:100910000322084B1A702823054AD25C074B9A70B1
:10092000034AD3695B07FCD40122074B1A70C7E75F
:100930000010004248000020040000204C0000206D
:10094000FFFFFCFF450000204400002010B50B4BCA
:1009500098470B4B98470B4B98470B4B98470B4BC3
:1009600098470B4C802000020A498022D20500E003
:100970008A61236A0342FBD14A61FAE7010600005B
:10098000150700004507000085070000ED0700007F
:10099000004400418044004170B500260C4D0D4CD0
:1009A000641BA410A64209D1002600F02BF80A4DC2
:1009B0000A4C641BA410A64205D170BDB300EB58CD
:1009C00098470136EEE7B300EB5898470136F2E757
:1009D000100A0000100A0000100A0000140A0000AB
:1009E000480200002802000028020000B4020000B3
:1009F0003A020000560200002C02000064020000CF
:100A0000A4020000F8B5C046F8BC08BC9E4670477A
:100A1000DD000000F8B5C046F8BC08BC9E46704733
:040A2000B50000001D
:080A24000100000001020300C3
:0400000300000631C2
:00000001FF
